:100000000C9463000C948B000C948B000C946C0388
:100010000C946C030C946C030C948B000C948B006C
:100020000C948B000C948B000C948B000C948B0024
:100030000C948B000C948B000C948B000C948B0014
:100040000C94CA020C948B000C943A030C94140385
:100050000C948B000C948B000C948B000C948B00F4
:100060000C948B000C948B000000000024002700EF
:100070002A0000000008000201000003040700003D
:1000800000000000000000000000250028002B00F8
:1000900000000000230026002900040404040404D6
:1000A0000404020202020202030303030303010227
:1000B00004081020408001020408102001020408F6
:1000C0001020E603D30511241FBECFEFD8E0DEBF1A
:1000D000CDBF11E0A0E0B1E0EAE3FCE002C0059092
:1000E0000D92A032B107D9F722E0A0E2B1E001C041
:1000F0001D92A932B207E1F710E0C2E6D0E004C0D9
:100100002197FE010E940506C136D107C9F70E945A
:1001100091040C9410060C94000090E0FC01EE5841
:10012000FF4F3491FC01E255FF4F2491FC01E6564C
:10013000FF4FE491EE2309F43BC0332339F1333010
:1001400091F038F43130A9F0323001F584B58F7D6B
:1001500012C0373091F03830A1F03430B9F48091CA
:1001600080008F7D03C0809180008F778093800016
:100170000DC084B58F7784BD09C08091B0008F77A2
:1001800003C08091B0008F7D8093B000F0E0EE0F4F
:10019000FF1FEA57FF4FA591B4918FB7F894EC91E8
:1001A000611103C020952E2301C02E2B2C938FBFED
:1001B0000895CF93DF9390E0FC01E255FF4F249127
:1001C000FC01E656FF4F8491882361F190E0880F8F
:1001D000991FFC01E859FF4FC591D491FC01EA57E2
:1001E000FF4FA591B491611109C09FB7F894888120
:1001F000209582238883EC912E230BC0623061F41A
:100200009FB7F8943881822F809583238883EC915F
:100210002E2B2C939FBF06C08FB7F894E8812E2B0E
:1002200028838FBFDF91CF910895CF92DF92EF9215
:10023000FF920F931F93CF93DF936C017A018B0191
:10024000C0E0D0E0CE15DF0589F0D8016D918D01B9
:10025000D601ED91FC910190F081E02DC601099548
:10026000892B11F47E0102C02196ECCFC701DF91EA
:10027000CF911F910F91FF90EF90DF90CF90089555
:10028000FC01918D828D981761F0828DDF01A80F9E
:10029000B11D5D968C91928D9F5F9F73928F90E0C0
:1002A00008958FEF9FEF0895FC01918D828D98172F
:1002B00031F0828DE80FF11D858D90E008958FEF6C
:1002C0009FEF0895FC01918D228D892F90E0805C35
:1002D0009F4F821B91098F73992708958DE691E0B6
:1002E0000E94620121E0892B09F420E0822F089509
:1002F000FC01848DDF01A80FB11DA35ABF4F2C91C3
:10030000848D90E001968F739927848FA689B78991
:100310002C93A089B1898C9180648C93938D848D6A
:10032000981306C00288F389E02D80818F7D808339
:100330000895EF92FF920F931F93CF93DF93EC01F9
:1003400081E0888F9B8D8C8D981305C0E889F98991
:10035000808185FD24C0F62E0B8D10E00F5F1F4FAE
:100360000F731127E02E8C8DE8120CC00FB607FC1E
:10037000FACFE889F989808185FFF5CFCE010E9407
:100380007801F1CF8B8DFE01E80FF11DE35AFF4F8D
:10039000F0820B8FEA89FB898081806207C0EE8939
:1003A000FF896083E889F98980818064808381E0A6
:1003B00090E0DF91CF911F910F91FF90EF90089502
:1003C000CF93DF93EC01888D8823C9F0EA89FB89FC
:1003D000808185FD05C0A889B9898C9186FD0FC0F3
:1003E0000FB607FCF5CF808185FFF2CFA889B989C8
:1003F0008C9185FFEDCFCE010E947801E7CFDF9190
:10040000CF91089580E090E0892B29F00E946E0141
:1004100081110C94000008952091620130916301D4
:100420002817390771F49091600180916101981744
:1004300041F0E0916001F0E0E05EFE4F808190E0ED
:1004400008958FEF9FEF089508951F93CF93DF9343
:10045000DC015C962D913C915D972115310539F4B5
:1004600081E090E013969C938E9312973DC0519635
:10047000ED91FC91529750969C915097892F8095C1
:100480001FB75E964C915E9741FB772770F941FD4F
:100490006095F8944081772311F0492B01C04823DF
:1004A0004083E9012197F1F748E0508160FF02C0E5
:1004B000592B01C058235083E9012197F1F7669524
:1004C000415099F7772321F090818923808303C0DD
:1004D0008081982B90831FBF5C968D919C915D9736
:1004E0000197F1F721E030E0C901DF91CF911F9131
:1004F000089520916201309163012817390771F442
:10050000809161012091600190E0805C9F4F821B8F
:10051000910960E470E00E94DD05089580E090E0BC
:100520000895209162013091630128173907B9F4C9
:100530009091600180916101981789F0E0916001CC
:10054000F0E0E05EFE4F80812091600130E02F5F9F
:100550003F4F2F7333272093600190E008958FEF72
:100560009FEF0895E0916201F0916301E817F907A8
:1005700069F4A389B4899C918589809589238C939A
:10058000109263011092620181E0089580E0089565
:100590000E940B061F920F920FB60F9211242F93F9
:1005A0003F938F939F93AF93BF93809169019091F5
:1005B0006A01A0916B01B0916C013091680123E058
:1005C000230F2D3720F40196A11DB11D05C026E88B
:1005D000230F0296A11DB11D20936801809369012C
:1005E00090936A01A0936B01B0936C0180916401B8
:1005F00090916501A0916601B09167010196A11DDE
:10060000B11D8093640190936501A0936601B0933E
:100610006701BF91AF919F918F913F912F910F9063
:100620000FBE0F901F9018951F920F920FB60F924A
:1006300011242F933F934F935F936F937F938F93E7
:100640009F93AF93BF93EF93FF938DE691E00E944A
:100650007801FF91EF91BF91AF919F918F917F9121
:100660006F915F914F913F912F910F900FBE0F901F
:100670001F9018951F920F920FB60F9211242F936F
:100680008F939F93EF93FF93E0917D01F0917E0113
:100690008081E0918301F091840182FD12C09081FC
:1006A000809186018F5F8F7320918701821751F0AF
:1006B000E0918601F0E0E359FE4F958F809386012B
:1006C00001C08081FF91EF919F918F912F910F90A9
:1006D0000FBE0F901F9018951F920F920FB60F929A
:1006E00011242F933F934F935F936F937F938F9337
:1006F0009F93AF93BF93EF93FF93E0916201F091CB
:100700006301309709F451C0968DA685B78585851C
:1007100091FF04C09C91892329F447C09C918923AF
:1007200009F043C0A389B4899C9185898095892368
:100730008C93868997890197F1F7608D718DA685D5
:10074000B785558538E020E0CB010197F1F7822F7E
:1007500090E095958795282F4C91452309F02068C6
:10076000315091F7868D81FD20958091610190E057
:1007700001968F73992730916001381749F0A09145
:100780006101B0E0A05EBE4F2C938093610103C075
:10079000868D8160868F828D938D0197F1F7A38975
:1007A000B4899C918589892B8C93FF91EF91BF919E
:1007B000AF919F918F917F916F915F914F913F91F9
:1007C0002F910F900FBE0F901F90189510927001EF
:1007D00010926F0188EE93E0A0E0B0E08093710189
:1007E00090937201A0937301B093740124E031E0FF
:1007F00030936E0120936D0125EC30E030937A0147
:100800002093790124EC30E030937C0120937B012C
:1008100020EC30E030937E0120937D0121EC30E02C
:100820003093800120937F0122EC30E030938201ED
:100830002093810126EC30E03093840120938301E2
:1008400010928601109287011092880110928901FE
:1008500010920D0210920C0280930E0290930F02E0
:10086000A0931002B093110284E191E090930B02E7
:1008700080930A0210922102109220021092230209
:100880001092220210922502109224021092270246
:1008900010922602609128026E7F6D7F609328027D
:1008A0006695617081E0682786E00E948D0061E0B6
:1008B00086E00E94D900E4EBF0E0E491E0931A02B4
:1008C000E0EAF0E0E491F0E0EE0FFF1FEA57FF4F9F
:1008D0008591949190931C0280931B0260E085E0C7
:1008E0000E94D9008091280281FD04C061E085E06A
:1008F0000E948D0085E080931602E3EBF0E0E49126
:10090000E0931702EFE9F0E0E491F0E0EE0FFF1F53
:10091000E057FF4F859194919093190280931802AC
:100920000895789484B5826084BD84B5816084BD67
:1009300085B5826085BD85B5816085BD80916E007D
:10094000816080936E0010928100809181008260AE
:1009500080938100809181008160809381008091EB
:1009600080008160809380008091B10084608093DA
:10097000B1008091B00081608093B00080917A00D6
:10098000846080937A0080917A00826080937A00FC
:1009900080917A00816080937A0080917A008068EB
:1009A00080937A001092C10061E084E00E94D90037
:1009B00061E083E00E94D90060E084E00E948D0045
:1009C00061E083E00E948D00E0917D01F0917E0165
:1009D00082E08083E0917901F0917A011082E091C8
:1009E0007B01F0917C018FEC808310928501E09176
:1009F0008101F091820186E08083E0917F01F09196
:100A00008001808180618083E0917F01F09180018D
:100A1000808188608083E0917F01F09180018081F6
:100A200080688083E0917F01F091800180818F7DDB
:100A300080831092250210922402109223021092B9
:100A4000220210922102109220028DE991E09093EF
:100A500027028093260290911602963108F057C023
:100A60002DEB30E030932102209320022BE931E07E
:100A700030932302209322022CE231E030932502AE
:100A80002093240220916800983050F031E09E308D
:100A900008F430E081E001C0880F3A95EAF701C020
:100AA00084E0822B80936800983038F09E3040F0CC
:100AB000963148F020E030E008C02DE630E005C077
:100AC0002BE630E002C02CE630E030931E0220938B
:100AD0001D02983030F481E001C0880F9A95EAF742
:100AE0000EC0292F30E09E3018F42850310902C082
:100AF0002E50310981E001C0880F2A95EAF78093D2
:100B00001F0280912602909127020197F1F78091B0
:100B1000240290912502892BB1F18091620190917C
:100B2000630122E08A30920771F1009711F00E9470
:100B3000B202809128028E7F809328021092610178
:100B4000109260018AE092E09093630180936201C9
:100B5000E0911D02F0911E02908180911F02892B6D
:100B6000808311C08DE691E00E946201892B49F0DB
:100B70008DE691E00E944001682F8AE092E00E9499
:100B800025020E9402028AE092E00E947902892BEB
:100B900049F38AE092E00E949102682F8DE691E08D
:100BA0000E949901F0CF84E191E090930B02809331
:100BB0000A028AE092E00C94B20297FB072E16F428
:100BC000009407D077FD09D00E94F10507FC05D0FD
:100BD0003EF4909581959F4F0895709561957F4F54
:100BE0000895AA1BBB1B51E107C0AA1FBB1FA61774
:100BF000B70710F0A61BB70B881F991F5A95A9F7C6
:100C000080959095BC01CD010895EE0FFF1F0590D2
:100C1000F491E02D099481E090E0F8940C94100692
:100C200010E0C2E6D0E004C0FE010E940506219655
:0A0C3000C336D107C9F7F894FFCFCF
:100C3A000000000099011501620140015401E00120
:100C4A000000000025021501790291020C0224021B
:00000001FF
