:100000000C9463000C948B000C948B000C944D04A6
:100010000C944D040C944D040C948B000C948B00A8
:100020000C948B000C948B000C948B000C948B0024
:100030000C948B000C948B000C948B000C948B0014
:100040000C94AB030C948B000C941B040C94F503E0
:100050000C948B000C948B000C948B000C948B00F4
:100060000C948B000C948B000000000024002700EF
:100070002A0000000008000201000003040700003D
:1000800000000000000000000000250028002B00F8
:1000900000000000230026002900040404040404D6
:1000A0000404020202020202030303030303010227
:1000B00004081020408001020408102001020408F6
:1000C0001020C7045A0711241FBECFEFD8E0DEBFAF
:1000D000CDBF22E0ACE5B1E001C01D92A936B20768
:1000E000E1F711E0A0E0B1E0E6EDF3E102C0059038
:1000F0000D92AC35B107D9F710E0C2E6D0E004C0EC
:100100002197FE010E94C307C136D107C9F70E949B
:1001100072050C94DE090C9400002FB7F8948091BE
:10012000A5019091A601A091A701B091A8012FBFB0
:1001300080934E0290934F02A0935002B0935102CD
:10014000E0914602F09147020680F781E02D86E4B7
:1001500092E0099597FF26C02FB7F8948091A501EA
:100160009091A601A091A701B091A8012FBF409145
:100170004E0250914F026091500270915102841BC7
:10018000950BA60BB70B40914A0250914B02609120
:100190004C0270914D0284179507A607B70780F2AD
:1001A0008FEF9FEF089590E0FC01EE58FF4F3491E0
:1001B000FC01E255FF4F2491FC01E656FF4FE4910C
:1001C000EE2309F43BC0332339F1333091F038F496
:1001D0003130A9F0323001F584B58F7D12C037304F
:1001E00091F03830A1F03430B9F4809180008F7DE7
:1001F00003C0809180008F77809380000DC084B50C
:100200008F7784BD09C08091B0008F7703C0809143
:10021000B0008F7D8093B000F0E0EE0FFF1FEA5733
:10022000FF4FA591B4918FB7F894EC91611103C081
:1002300020952E2301C02E2B2C938FBF0895CF9392
:10024000DF9390E0FC01E255FF4F2491FC01E6565C
:10025000FF4F8491882361F190E0880F991FFC0182
:10026000E859FF4FC591D491FC01EA57FF4FA59182
:10027000B491611109C09FB7F894888120958223B9
:100280008883EC912E230BC0623061F49FB7F89401
:100290003881822F809583238883EC912E2B2C9399
:1002A0009FBF06C08FB7F894E8812E2B28838FBF9D
:1002B000DF91CF9108953FB7F8948091A10190917B
:1002C000A201A091A301B091A40126B5A89B05C0ED
:1002D0002F3F19F00196A11DB11D3FBFBA2FA92FC5
:1002E000982F8827820F911DA11DB11DBC01CD0142
:1002F00042E0660F771F881F991F4A95D1F708952E
:100300008F929F92AF92BF92CF92DF92EF92FF9225
:100310006B017C010E945B014B015C01C114D104A3
:10032000E104F104F1F00E945B01DC01CB018819CA
:100330009909AA09BB09883E9340A105B10570F34C
:1003400021E0C21AD108E108F10888EE880E83E0A6
:10035000981EA11CB11CC114D104E104F10419F7C9
:10036000DDCFFF90EF90DF90CF90BF90AF909F9048
:100370008F900895CF92DF92EF92FF920F931F9389
:10038000CF93DF936C017A018B01C0E0D0E0CE15F2
:10039000DF0589F0D8016D918D01D601ED91FC91B9
:1003A0000190F081E02DC6010995892B11F47E01A1
:1003B00002C02196ECCFC701DF91CF911F910F9121
:1003C000FF90EF90DF90CF900895FC01918D828D8A
:1003D000981761F0828DDF01A80FB11D5D968C9199
:1003E000928D9F5F9F73928F90E008958FEF9FEFA4
:1003F0000895FC01918D828D981731F0828DE80F60
:10040000F11D858D90E008958FEF9FEF0895FC0119
:10041000918D228D892F90E0805C9F4F821B9109E6
:100420008F739927089589EA91E00E94070221E0DD
:10043000892B09F420E0822F0895FC01848DDF01CF
:10044000A80FB11DA35ABF4F2C91848D90E0019647
:100450008F739927848FA689B7892C93A089B18936
:100460008C9180648C93938D848D981306C0028840
:10047000F389E02D80818F7D80830895EF92FF9234
:100480000F931F93CF93DF93EC0181E0888F9B8DB7
:100490008C8D981305C0E889F989808185FD24C079
:1004A000F62E0B8D10E00F5F1F4F0F731127E02EFC
:1004B0008C8DE8120CC00FB607FCFACFE889F989D9
:1004C000808185FFF5CFCE010E941D02F1CF8B8D7B
:1004D000FE01E80FF11DE35AFF4FF0820B8FEA890E
:1004E000FB898081806207C0EE89FF896083E8898B
:1004F000F98980818064808381E090E0DF91CF91F1
:100500001F910F91FF90EF900895CF93DF93EC012F
:10051000888D8823C9F0EA89FB89808185FD05C023
:10052000A889B9898C9186FD0FC00FB607FCF5CF5D
:10053000808185FFF2CFA889B9898C9185FFEDCFA5
:10054000CE010E941D02E7CFDF91CF91089580E098
:1005500090E0892B29F00E94130281110C94000075
:10056000089520919E0130919F012817390771F459
:1005700090919C0180919D01981741F0E0919C0120
:10058000F0E0E45AFE4F808190E008958FEF9FEFF6
:10059000089508951F93CF93DF93DC015C962D910E
:1005A0003C915D972115310539F481E090E0139677
:1005B0009C938E9312973DC05196ED91FC9152976A
:1005C00050969C915097892F80951FB75E964C91BD
:1005D0005E9741FB772770F941FD6095F894408163
:1005E000772311F0492B01C048234083E90121976B
:1005F000F1F748E0508160FF02C0592B01C0582339
:100600005083E9012197F1F76695415099F77723D7
:1006100021F090818923808303C08081982B90836F
:100620001FBF5C968D919C915D970197F1F721E03A
:1006300030E0C901DF91CF911F91089520919E0173
:1006400030919F012817390771F480919D01209105
:100650009C0190E0805C9F4F821B910960E470E0F8
:100660000E949B07089580E090E0089520919E01EC
:1006700030919F0128173907B9F490919C0180911E
:100680009D01981789F0E0919C01F0E0E45AFE4F3B
:10069000808120919C0130E02F5F3F4F2F733327E3
:1006A00020939C0190E008958FEF9FEF0895E091D3
:1006B0009E01F0919F01E817F90769F4A389B489B5
:1006C0009C918589809589238C9310929F0110922B
:1006D0009E0181E0089580E008956115710579F02B
:1006E000FB0101900020E9F73197AF01461B570B42
:1006F000DC01ED91FC910280F381E02D099480E012
:1007000090E008950E94C0090F931F93CF93DF9349
:10071000EC0188819981009729F02A813B81261775
:10072000370788F48B016F5F7F4F0E94F6080097B0
:1007300061F0998388831B830A832C813D81232B5D
:1007400011F4FC01108281E001C080E0DF91CF91C3
:100750001F910F9108951F920F920FB60F921124BF
:100760002F933F938F939F93AF93BF938091A50156
:100770009091A601A091A701B091A8013091A0018C
:1007800023E0230F2D3720F40196A11DB11D05C0D4
:1007900026E8230F0296A11DB11D2093A00180938E
:1007A000A5019093A601A093A701B093A801809101
:1007B000A1019091A201A091A301B091A401019681
:1007C000A11DB11D8093A1019093A201A093A3014B
:1007D000B093A401BF91AF919F918F913F912F91C1
:1007E0000F900FBE0F901F9018951F920F920FB68B
:1007F0000F9211242F933F934F935F936F937F93A7
:100800008F939F93AF93BF93EF93FF9389EA91E008
:100810000E941D02FF91EF91BF91AF919F918F9127
:100820007F916F915F914F913F912F910F900FBEEC
:100830000F901F9018951F920F920FB60F921124D0
:100840002F938F939F93EF93FF93E091B901F091D2
:10085000BA018081E091BF01F091C00182FD12C018
:1008600090818091C2018F5F8F732091C3018217A5
:1008700051F0E091C201F0E0E755FE4F958F809373
:10088000C20101C08081FF91EF919F918F912F91C3
:100890000F900FBE0F901F9018951F920F920FB6DA
:1008A0000F9211242F933F934F935F936F937F93F6
:1008B0008F939F93AF93BF93EF93FF93E0919E012C
:1008C000F0919F01309709F451C0968DA685B785A8
:1008D000858591FF04C09C91892329F447C09C9190
:1008E000892309F043C0A389B4899C9185898095A7
:1008F00089238C93868997890197F1F7608D718D93
:10090000A685B785558538E020E0CB010197F1F742
:10091000822F90E095958795282F4C91452309F0DB
:100920002068315091F7868D81FD209580919D0141
:1009300090E001968F73992730919C01381749F008
:10094000A0919D01B0E0A45ABE4F2C9380939D01CD
:1009500003C0868D8160868F828D938D0197F1F71C
:10096000A389B4899C918589892B8C93FF91EF9100
:10097000BF91AF919F918F917F916F915F914F91B7
:100980003F912F910F900FBE0F901F9018951092CE
:10099000AC011092AB0188EE93E0A0E0B0E0809350
:1009A000AD019093AE01A093AF01B093B0012AE0E6
:1009B00031E03093AA012093A90125EC30E0309377
:1009C000B6012093B50124EC30E03093B8012093B8
:1009D000B70120EC30E03093BA012093B90121EC4B
:1009E00030E03093BC012093BB0122EC30E0309327
:1009F000BE012093BD0126EC30E03093C00120936E
:100A0000BF011092C2011092C3011092C401109252
:100A1000C501109249021092480280934A029093B5
:100A20004B02A0934C02B0934D028AE191E0909367
:100A300047028093460210925D0210925C0210926F
:100A40005F0210925E021092610210926002109298
:100A5000630210926202609164026E7F6D7F609308
:100A600064026695617081E0682786E00E94D30089
:100A700061E086E00E941F01E4EBF0E0E491E09386
:100A80005602E0EAF0E0E491F0E0EE0FFF1FEA57D3
:100A9000FF4F85919491909358028093570260E0A4
:100AA00085E00E941F018091640281FD04C061E025
:100AB00085E00E94D30085E080935202E3EBF0E0F2
:100AC000E491E0935302EFE9F0E0E491F0E0EE0FFF
:100AD000FF1FE057FF4F85919491909355028093AB
:100AE00054020895CF93DF93CDB7DEB728970FB6A2
:100AF000F894DEBF0FBECDBF789484B5826084BD0C
:100B000084B5816084BD85B5826085BD85B5816011
:100B100085BD80916E00816080936E00109281008F
:100B2000809181008260809381008091810081604A
:100B3000809381008091800081608093800080910B
:100B4000B10084608093B1008091B0008160809397
:100B5000B00080917A00846080937A0080917A005E
:100B6000826080937A0080917A00816080937A001D
:100B700080917A00806880937A001092C10061E0D1
:100B800084E00E941F0161E083E00E941F0160E099
:100B900084E00E94D30061E083E00E94D300E091F2
:100BA000B901F091BA0182E08083E091B501F09142
:100BB000B6011082E091B701F091B8018FEC80830B
:100BC0001092C101E091BD01F091BE0186E08083E9
:100BD000E091BB01F091BC01808180618083E09154
:100BE000BB01F091BC01808188608083E091BB01F2
:100BF000F091BC01808180688083E091BB01F0911D
:100C0000BC0180818F7D808310926102109260020E
:100C100010925F0210925E0210925D0210925C02CE
:100C20008DE991E090936302809362029091520269
:100C3000963108F057C02DEB30E030935D022093E1
:100C40005C022BE931E030935F0220935E022CE2DC
:100C500031E0309361022093600220916800983067
:100C600050F031E09E3008F430E081E001C0880FA0
:100C70003A95EAF701C084E0822B809368009830AF
:100C800038F09E3040F0963148F020E030E008C067
:100C90002DE630E005C02BE630E002C02CE630E067
:100CA00030935A0220935902983030F481E001C009
:100CB000880F9A95EAF70EC0292F30E09E3018F47D
:100CC0002850310902C02E50310981E001C0880F3F
:100CD0002A95EAF780935B02809162029091630209
:100CE0000197F1F78091600290916102892B21F1C7
:100CF00080919E0190919F0122E086349207E1F05D
:100D0000009711F00E945703809164028E7F8093B8
:100D1000640210929D0110929C0186E492E09093EF
:100D20009F0180939E01E0915902F0915A029081B7
:100D300080915B02892B808388EC90E0A0E0B0E09A
:100D400080934A0290934B02A0934C02B0934D02C1
:100D500086E492E00E941E03181619060CF055C096
:100D60001A8219821C821B821E821D8260E070E042
:100D7000CE0101960E94840329813A8181110DC020
:100D80002115310519F0C9010E945E081A821982E5
:100D90001E821D821C821B8220C01E821D826AE36D
:100DA00071E0C9010E94D70918C08F8318860F5FB0
:100DB0001F4FB801CE0101960E948403882369F079
:100DC00029813A818D819E81BE01695F7F4F820FAB
:100DD000931F0E94D7091E830D830E948D000D81F1
:100DE0001E8197FFE2CFE980FA80012B41F066E295
:100DF00071E0C7010E94CE0911E0892B09F010E0D3
:100E0000C7010E945E08111112C089EA91E00E9498
:100E10000702892B49F089EA91E00E94E501682FD9
:100E200086E492E00E94CA020E94A70291CF6EE27D
:100E300071E089EA91E00E946D0368E371E089EA5C
:100E400091E00E946D0360ED77E080E090E00E9409
:100E500080016BE371E086E492E00E946D0364E63A
:100E600070E080E090E00E94800164E471E086E43C
:100E700092E00E946D0364E670E080E090E00E94E2
:100E800080016BE471E086E492E00E946D0364E609
:100E900070E080E090E00E94800165E571E086E40A
:100EA00092E00E946D0364E670E080E090E00E94B2
:100EB0008001ABCF8AE191E0909347028093460294
:100EC00086E492E00C9457032F923F924F925F92E8
:100ED0006F927F928F929F92AF92BF92CF92DF924A
:100EE000EF92FF920F931F93CF93DF93CDB7DEB7AF
:100EF000CA1BDB0B0FB6F894DEBF0FBECDBF099443
:100F00002A88398848885F846E847D848C849B8499
:100F1000AA84B984C884DF80EE80FD800C811B81A7
:100F2000AA81B981CE0FD11D0FB6F894DEBF0FBED6
:100F3000CDBFED01089597FB072E16F4009407D05E
:100F400077FD09D00E94AF0707FC05D03EF49095CD
:100F500081959F4F0895709561957F4F0895AA1BC5
:100F6000BB1B51E107C0AA1FBB1FA617B70710F094
:100F7000A61BB70B881F991F5A95A9F780959095C6
:100F8000BC01CD010895EE0FFF1F0590F491E02DF7
:100F90000994CF93DF938230910510F482E090E0C2
:100FA000E0916702F091680220E030E0C0E0D0E01C
:100FB000309711F14081518148175907C0F0481707
:100FC000590761F482819381209719F09B838A836A
:100FD0002BC0909368028093670226C021153105CB
:100FE00019F04217530718F49A01BE01DF01EF010F
:100FF0000280F381E02DDCCF2115310509F1281B9A
:10100000390B2430310590F412968D919C911397F1
:101010006115710521F0FB019383828304C09093D5
:10102000680280936702FD01329644C0FD01E20F21
:10103000F31F81939193225031092D933C933AC031
:101040002091650230916602232B41F42091020128
:1010500030910301309366022093650220910001D4
:10106000309101012115310541F42DB73EB7409172
:10107000040150910501241B350BE0916502F091AC
:101080006602E217F307A0F42E1B3F0B281739075F
:1010900078F0AC014E5F5F4F2417350748F04E0FD4
:1010A0005F1F50936602409365028193919302C043
:1010B000E0E0F0E0CF01DF91CF9108950F931F930F
:1010C000CF93DF93009709F48CC0FC013297138211
:1010D000128200916702109168020115110581F4D6
:1010E00020813181820F931F209165023091660229
:1010F0002817390779F5F0936602E093650271C00D
:10110000D80140E050E0AE17BF0750F412962D9181
:101110003C911397AD012115310509F1D901F3CFA8
:101120009D01DA013383228360817181860F971FCD
:101130008217930769F4EC0128813981260F371F44
:101140002E5F3F4F318320838A819B8193838283EB
:10115000452B29F4F0936802E093670242C013968E
:10116000FC93EE931297ED01499159919E01240F42
:10117000351FE217F30771F480819181840F951F69
:10118000029611969C938E938281938113969C93E1
:101190008E931297E0E0F0E0D80112968D919C9129
:1011A0001397009719F0F8018C01F6CF8D919C915F
:1011B00098012E5F3F4F820F931F2091650230915F
:1011C00066022817390769F4309729F410926802EB
:1011D0001092670202C0138212821093660200937B
:1011E0006502DF91CF911F910F910895A0E0B0E0CB
:1011F000ECEFF8E00C946807EC01009721F4CB01C8
:101200000E94C907B8C0FC01E60FF71F9C012250DD
:101210003109E217F30708F4ACC0D9010D911C9114
:10122000119706171707B0F00530110508F49FC095
:10123000C80104978617970708F499C0025011094E
:10124000061B170B019311936D937C93CF010E94A2
:101250005E088DC05B01A01AB10A4C01800E911E80
:10126000A0916702B091680240E050E0E12CF12CBF
:10127000109709F44AC0A815B905D1F56D907C9076
:101280001197630182E0C80ED11CCA14DB0480F1FF
:10129000A3014A195B096A0182E0C80ED11C1296AB
:1012A000BC9012971396AC91B5E0CB16D10440F0E8
:1012B000B282A38351834083D9016D937C930AC08A
:1012C0000E5F1F4FC301800F911FF901918380832F
:1012D000EB2DFA2FE114F10431F0D7011396FC93B2
:1012E000EE93129744C0F0936802E09367023FC008
:1012F0008D919C9111974817590708F4AC017D0115
:1013000012960D90BC91A02DB3CF80916502909163
:10131000660288159905E1F446175707C8F48091CD
:10132000000190910101009741F48DB79EB7409163
:10133000040150910501841B950BE817F907C8F4C7
:10134000F0936602E0936502F901718360830FC038
:10135000CB010E94C9077C01009759F0A801BE018A
:101360000E94C509CE010E945E08C70104C0CE01DB
:1013700002C080E090E0CDB7DEB7EEE00C948407C9
:1013800081E090E0F8940C94DE09FB01DC0102C0DE
:1013900001900D9241505040D8F70895FB01DC01B7
:1013A0008D91019080190110D9F3990B0895FB01DB
:1013B000DC0101900D920020E1F7089510E0C2E6F3
:1013C000D0E004C0FE010E94C3072196C336D107B6
:0613D000C9F7F894FFCFFD
:1013D600000069028000000000003E02BA01070218
:1013E600E501F901850200000000CA02BA011E03E8
:1013F6003603B102C9024F4B2B434F4E4E00434FAB
:101406004E4E4543544544000D0A006861737362AD
:1014160069616E0073656E736F7200726F6F6D5FD8
:0C14260074656D7000636F6E666967008E
:00000001FF
